{
  "_format": "hh-sol-artifact-1",
  "contractName": "CropListing",
  "sourceName": "contracts/CropListing.sol",
  "abi": [
    {
      "inputs": [
        {
          "internalType": "string",
          "name": "_cropType",
          "type": "string"
        },
        {
          "internalType": "uint256",
          "name": "_minimumBuy",
          "type": "uint256"
        },
        {
          "internalType": "string",
          "name": "_location",
          "type": "string"
        },
        {
          "internalType": "uint256",
          "name": "_fundingGoal",
          "type": "uint256"
        },
        {
          "internalType": "uint256",
          "name": "_deadline",
          "type": "uint256"
        }
      ],
      "stateMutability": "nonpayable",
      "type": "constructor"
    },
    {
      "anonymous": false,
      "inputs": [
        {
          "indexed": false,
          "internalType": "address",
          "name": "contributor",
          "type": "address"
        },
        {
          "indexed": false,
          "internalType": "uint256",
          "name": "amount",
          "type": "uint256"
        }
      ],
      "name": "ContributionReceived",
      "type": "event"
    },
    {
      "anonymous": false,
      "inputs": [
        {
          "indexed": false,
          "internalType": "address",
          "name": "owner",
          "type": "address"
        },
        {
          "indexed": false,
          "internalType": "string",
          "name": "cropType",
          "type": "string"
        },
        {
          "indexed": false,
          "internalType": "uint256",
          "name": "minimumBuy",
          "type": "uint256"
        },
        {
          "indexed": false,
          "internalType": "string",
          "name": "location",
          "type": "string"
        },
        {
          "indexed": false,
          "internalType": "uint256",
          "name": "fundingGoal",
          "type": "uint256"
        },
        {
          "indexed": false,
          "internalType": "uint256",
          "name": "deadline",
          "type": "uint256"
        }
      ],
      "name": "CropListingCreated",
      "type": "event"
    },
    {
      "inputs": [],
      "name": "arbiter",
      "outputs": [
        {
          "internalType": "address",
          "name": "",
          "type": "address"
        }
      ],
      "stateMutability": "view",
      "type": "function"
    },
    {
      "inputs": [
        {
          "internalType": "uint256",
          "name": "",
          "type": "uint256"
        }
      ],
      "name": "contributionAmounts",
      "outputs": [
        {
          "internalType": "address",
          "name": "contributor",
          "type": "address"
        },
        {
          "internalType": "uint256",
          "name": "amount",
          "type": "uint256"
        }
      ],
      "stateMutability": "view",
      "type": "function"
    },
    {
      "inputs": [
        {
          "internalType": "uint256",
          "name": "",
          "type": "uint256"
        }
      ],
      "name": "contributors",
      "outputs": [
        {
          "internalType": "address",
          "name": "contributor",
          "type": "address"
        },
        {
          "internalType": "uint256",
          "name": "amount",
          "type": "uint256"
        }
      ],
      "stateMutability": "view",
      "type": "function"
    },
    {
      "inputs": [],
      "name": "cropType",
      "outputs": [
        {
          "internalType": "string",
          "name": "",
          "type": "string"
        }
      ],
      "stateMutability": "view",
      "type": "function"
    },
    {
      "inputs": [],
      "name": "deadline",
      "outputs": [
        {
          "internalType": "uint256",
          "name": "",
          "type": "uint256"
        }
      ],
      "stateMutability": "view",
      "type": "function"
    },
    {
      "inputs": [],
      "name": "fund",
      "outputs": [],
      "stateMutability": "payable",
      "type": "function"
    },
    {
      "inputs": [],
      "name": "fundingGoal",
      "outputs": [
        {
          "internalType": "uint256",
          "name": "",
          "type": "uint256"
        }
      ],
      "stateMutability": "view",
      "type": "function"
    },
    {
      "inputs": [],
      "name": "getBalance",
      "outputs": [
        {
          "internalType": "uint256",
          "name": "",
          "type": "uint256"
        }
      ],
      "stateMutability": "view",
      "type": "function"
    },
    {
      "inputs": [],
      "name": "getContributionsList",
      "outputs": [
        {
          "components": [
            {
              "internalType": "address",
              "name": "contributor",
              "type": "address"
            },
            {
              "internalType": "uint256",
              "name": "amount",
              "type": "uint256"
            }
          ],
          "internalType": "struct CropListing.Contributions[]",
          "name": "",
          "type": "tuple[]"
        }
      ],
      "stateMutability": "view",
      "type": "function"
    },
    {
      "inputs": [],
      "name": "getCropType",
      "outputs": [
        {
          "internalType": "string",
          "name": "",
          "type": "string"
        }
      ],
      "stateMutability": "view",
      "type": "function"
    },
    {
      "inputs": [],
      "name": "getDeadline",
      "outputs": [
        {
          "internalType": "uint256",
          "name": "",
          "type": "uint256"
        }
      ],
      "stateMutability": "view",
      "type": "function"
    },
    {
      "inputs": [],
      "name": "getDetails",
      "outputs": [
        {
          "internalType": "address",
          "name": "",
          "type": "address"
        },
        {
          "internalType": "string",
          "name": "",
          "type": "string"
        },
        {
          "internalType": "uint256",
          "name": "",
          "type": "uint256"
        },
        {
          "internalType": "string",
          "name": "",
          "type": "string"
        },
        {
          "internalType": "uint256",
          "name": "",
          "type": "uint256"
        },
        {
          "internalType": "uint256",
          "name": "",
          "type": "uint256"
        }
      ],
      "stateMutability": "view",
      "type": "function"
    },
    {
      "inputs": [],
      "name": "getFundingGoal",
      "outputs": [
        {
          "internalType": "uint256",
          "name": "",
          "type": "uint256"
        }
      ],
      "stateMutability": "view",
      "type": "function"
    },
    {
      "inputs": [],
      "name": "getFundingPercentage",
      "outputs": [
        {
          "internalType": "uint256",
          "name": "",
          "type": "uint256"
        }
      ],
      "stateMutability": "view",
      "type": "function"
    },
    {
      "inputs": [],
      "name": "getFundingStatus",
      "outputs": [
        {
          "internalType": "string",
          "name": "",
          "type": "string"
        }
      ],
      "stateMutability": "view",
      "type": "function"
    },
    {
      "inputs": [],
      "name": "getLocation",
      "outputs": [
        {
          "internalType": "string",
          "name": "",
          "type": "string"
        }
      ],
      "stateMutability": "view",
      "type": "function"
    },
    {
      "inputs": [],
      "name": "getMinimumBuy",
      "outputs": [
        {
          "internalType": "uint256",
          "name": "",
          "type": "uint256"
        }
      ],
      "stateMutability": "view",
      "type": "function"
    },
    {
      "inputs": [],
      "name": "getOwner",
      "outputs": [
        {
          "internalType": "address",
          "name": "",
          "type": "address"
        }
      ],
      "stateMutability": "view",
      "type": "function"
    },
    {
      "inputs": [],
      "name": "getRemainingTime",
      "outputs": [
        {
          "internalType": "uint256",
          "name": "",
          "type": "uint256"
        }
      ],
      "stateMutability": "view",
      "type": "function"
    },
    {
      "inputs": [],
      "name": "index",
      "outputs": [
        {
          "internalType": "uint256",
          "name": "",
          "type": "uint256"
        }
      ],
      "stateMutability": "view",
      "type": "function"
    },
    {
      "inputs": [],
      "name": "isComplete",
      "outputs": [
        {
          "internalType": "bool",
          "name": "",
          "type": "bool"
        }
      ],
      "stateMutability": "view",
      "type": "function"
    },
    {
      "inputs": [],
      "name": "location",
      "outputs": [
        {
          "internalType": "string",
          "name": "",
          "type": "string"
        }
      ],
      "stateMutability": "view",
      "type": "function"
    },
    {
      "inputs": [],
      "name": "minimumBuy",
      "outputs": [
        {
          "internalType": "uint256",
          "name": "",
          "type": "uint256"
        }
      ],
      "stateMutability": "view",
      "type": "function"
    },
    {
      "inputs": [],
      "name": "owner",
      "outputs": [
        {
          "internalType": "address",
          "name": "",
          "type": "address"
        }
      ],
      "stateMutability": "view",
      "type": "function"
    },
    {
      "inputs": [],
      "name": "returnFunds",
      "outputs": [],
      "stateMutability": "nonpayable",
      "type": "function"
    },
    {
      "inputs": [],
      "name": "sendFundsToFarmer",
      "outputs": [],
      "stateMutability": "nonpayable",
      "type": "function"
    }
  ],
  "bytecode": "0x608060405273c645e7e6b6e5f9f8846a276f1c0934e089c66005600660016101000a81548173ffffffffffffffffffffffffffffffffffffffff021916908373ffffffffffffffffffffffffffffffffffffffff1602179055503480156200006657600080fd5b50604051620024ce380380620024ce83398181016040528101906200008c91906200036c565b336000806101000a81548173ffffffffffffffffffffffffffffffffffffffff021916908373ffffffffffffffffffffffffffffffffffffffff1602179055508460019081620000dd919062000673565b50836002819055508260039081620000f6919062000673565b5081600481905550806005819055506000600660006101000a81548160ff02191690831515021790555060006007819055507f5ce4f3444f18e3076f7388ae29251f1324b5300b27b36452bdbec9e611e8d48a60008054906101000a900473ffffffffffffffffffffffffffffffffffffffff16600160025460036004546005546040516200018b9695949392919062000851565b60405180910390a15050505050620008cc565b6000604051905090565b600080fd5b600080fd5b600080fd5b600080fd5b6000601f19601f8301169050919050565b7f4e487b7100000000000000000000000000000000000000000000000000000000600052604160045260246000fd5b6200020782620001bc565b810181811067ffffffffffffffff82111715620002295762000228620001cd565b5b80604052505050565b60006200023e6200019e565b90506200024c8282620001fc565b919050565b600067ffffffffffffffff8211156200026f576200026e620001cd565b5b6200027a82620001bc565b9050602081019050919050565b60005b83811015620002a75780820151818401526020810190506200028a565b60008484015250505050565b6000620002ca620002c48462000251565b62000232565b905082815260208101848484011115620002e957620002e8620001b7565b5b620002f684828562000287565b509392505050565b600082601f830112620003165762000315620001b2565b5b815162000328848260208601620002b3565b91505092915050565b6000819050919050565b620003468162000331565b81146200035257600080fd5b50565b60008151905062000366816200033b565b92915050565b600080600080600060a086880312156200038b576200038a620001a8565b5b600086015167ffffffffffffffff811115620003ac57620003ab620001ad565b5b620003ba88828901620002fe565b9550506020620003cd8882890162000355565b945050604086015167ffffffffffffffff811115620003f157620003f0620001ad565b5b620003ff88828901620002fe565b9350506060620004128882890162000355565b9250506080620004258882890162000355565b9150509295509295909350565b600081519050919050565b7f4e487b7100000000000000000000000000000000000000000000000000000000600052602260045260246000fd5b600060028204905060018216806200048557607f821691505b6020821081036200049b576200049a6200043d565b5b50919050565b60008190508160005260206000209050919050565b60006020601f8301049050919050565b600082821b905092915050565b600060088302620005057fffffffffffffffffffffffffffffffffffffffffffffffffffffffffffffffff82620004c6565b620005118683620004c6565b95508019841693508086168417925050509392505050565b6000819050919050565b6000620005546200054e620005488462000331565b62000529565b62000331565b9050919050565b6000819050919050565b620005708362000533565b620005886200057f826200055b565b848454620004d3565b825550505050565b600090565b6200059f62000590565b620005ac81848462000565565b505050565b5b81811015620005d457620005c860008262000595565b600181019050620005b2565b5050565b601f8211156200062357620005ed81620004a1565b620005f884620004b6565b8101602085101562000608578190505b620006206200061785620004b6565b830182620005b1565b50505b505050565b600082821c905092915050565b6000620006486000198460080262000628565b1980831691505092915050565b600062000663838362000635565b9150826002028217905092915050565b6200067e8262000432565b67ffffffffffffffff8111156200069a5762000699620001cd565b5b620006a682546200046c565b620006b3828285620005d8565b600060209050601f831160018114620006eb5760008415620006d6578287015190505b620006e2858262000655565b86555062000752565b601f198416620006fb86620004a1565b60005b828110156200072557848901518255600182019150602085019450602081019050620006fe565b8683101562000745578489015162000741601f89168262000635565b8355505b6001600288020188555050505b505050505050565b600073ffffffffffffffffffffffffffffffffffffffff82169050919050565b600062000787826200075a565b9050919050565b62000799816200077a565b82525050565b600082825260208201905092915050565b60008154620007bf816200046c565b620007cb81866200079f565b94506001821660008114620007e95760018114620008005762000837565b60ff19831686528115156020028601935062000837565b6200080b85620004a1565b60005b838110156200082f578154818901526001820191506020810190506200080e565b808801955050505b50505092915050565b6200084b8162000331565b82525050565b600060c0820190506200086860008301896200078e565b81810360208301526200087c8188620007b0565b90506200088d604083018762000840565b8181036060830152620008a18186620007b0565b9050620008b2608083018562000840565b620008c160a083018462000840565b979650505050505050565b611bf280620008dc6000396000f3fe6080604052600436106101815760003560e01c8063a4de4a84116100d1578063da4500001161008a578063f2dfc3fc11610064578063f2dfc3fc14610515578063f645466e14610540578063fbbf93a01461056b578063fe25e00a1461059b57610181565b8063da450000146104a8578063ea68301f146104bf578063efb98bcf146104ea57610181565b8063a4de4a84146103c7578063a8a50e98146103f2578063b2fa1c9e1461041d578063b60d428814610448578063b85090f314610452578063ce2ce3fc1461047d57610181565b80633cb5d1001161013e57806362b1f2ed1161011857806362b1f2ed1461031b5780637a3a0e8414610346578063893d20e8146103715780638da5cb5b1461039c57610181565b80633cb5d10014610287578063516f279e146102c55780635f8d96de146102f057610181565b806304e6acbf1461018657806305785e4c146101c457806312065fe0146101ef5780631eb5ea2e1461021a5780632986c0e51461023157806329dcb0cf1461025c575b600080fd5b34801561019257600080fd5b506101ad60048036038101906101a891906113ca565b6105c6565b6040516101bb929190611447565b60405180910390f35b3480156101d057600080fd5b506101d961060a565b6040516101e69190611470565b60405180910390f35b3480156101fb57600080fd5b50610204610610565b6040516102119190611470565b60405180910390f35b34801561022657600080fd5b5061022f610618565b005b34801561023d57600080fd5b5061024661086b565b6040516102539190611470565b60405180910390f35b34801561026857600080fd5b50610271610871565b60405161027e9190611470565b60405180910390f35b34801561029357600080fd5b506102ae60048036038101906102a991906113ca565b610877565b6040516102bc929190611447565b60405180910390f35b3480156102d157600080fd5b506102da6108cb565b6040516102e7919061151b565b60405180910390f35b3480156102fc57600080fd5b50610305610959565b6040516103129190611470565b60405180910390f35b34801561032757600080fd5b50610330610963565b60405161033d919061151b565b60405180910390f35b34801561035257600080fd5b5061035b6109f1565b6040516103689190611470565b60405180910390f35b34801561037d57600080fd5b506103866109f7565b604051610393919061153d565b60405180910390f35b3480156103a857600080fd5b506103b1610a20565b6040516103be919061153d565b60405180910390f35b3480156103d357600080fd5b506103dc610a44565b6040516103e9919061151b565b60405180910390f35b3480156103fe57600080fd5b50610407610ad6565b6040516104149190611654565b60405180910390f35b34801561042957600080fd5b50610432610b95565b60405161043f9190611691565b60405180910390f35b610450610ba8565b005b34801561045e57600080fd5b50610467610e52565b6040516104749190611470565b60405180910390f35b34801561048957600080fd5b50610492610e5c565b60405161049f919061151b565b60405180910390f35b3480156104b457600080fd5b506104bd610eee565b005b3480156104cb57600080fd5b506104d46110ee565b6040516104e19190611470565b60405180910390f35b3480156104f657600080fd5b506104ff61110f565b60405161050c9190611470565b60405180910390f35b34801561052157600080fd5b5061052a611124565b604051610537919061151b565b60405180910390f35b34801561054c57600080fd5b506105556111fa565b6040516105629190611470565b60405180910390f35b34801561057757600080fd5b50610580611204565b604051610592969594939291906116ac565b60405180910390f35b3480156105a757600080fd5b506105b0611369565b6040516105bd919061153d565b60405180910390f35b60086020528060005260406000206000915090508060000160009054906101000a900473ffffffffffffffffffffffffffffffffffffffff16908060010154905082565b60025481565b600047905090565b600660019054906101000a900473ffffffffffffffffffffffffffffffffffffffff1673ffffffffffffffffffffffffffffffffffffffff163373ffffffffffffffffffffffffffffffffffffffff16146106a8576040517f08c379a000000000000000000000000000000000000000000000000000000000815260040161069f9061178d565b60405180910390fd5b60646106b26110ee565b106106f2576040517f08c379a00000000000000000000000000000000000000000000000000000000081526004016106e9906117f9565b60405180910390fd5b6000600190505b600754811161084d576000600860008381526020019081526020016000206040518060400160405290816000820160009054906101000a900473ffffffffffffffffffffffffffffffffffffffff1673ffffffffffffffffffffffffffffffffffffffff1673ffffffffffffffffffffffffffffffffffffffff16815260200160018201548152505090506000816000015173ffffffffffffffffffffffffffffffffffffffff1682602001516040516107b29061184a565b60006040518083038185875af1925050503d80600081146107ef576040519150601f19603f3d011682016040523d82523d6000602084013e6107f4565b606091505b5050905080610838576040517f08c379a000000000000000000000000000000000000000000000000000000000815260040161082f906118ab565b60405180910390fd5b50508080610845906118fa565b9150506106f9565b506001600660006101000a81548160ff021916908315150217905550565b60075481565b60055481565b6009818154811061088757600080fd5b90600052602060002090600202016000915090508060000160009054906101000a900473ffffffffffffffffffffffffffffffffffffffff16908060010154905082565b600380546108d890611971565b80601f016020809104026020016040519081016040528092919081815260200182805461090490611971565b80156109515780601f1061092657610100808354040283529160200191610951565b820191906000526020600020905b81548152906001019060200180831161093457829003601f168201915b505050505081565b6000600554905090565b6001805461097090611971565b80601f016020809104026020016040519081016040528092919081815260200182805461099c90611971565b80156109e95780601f106109be576101008083540402835291602001916109e9565b820191906000526020600020905b8154815290600101906020018083116109cc57829003601f168201915b505050505081565b60045481565b60008060009054906101000a900473ffffffffffffffffffffffffffffffffffffffff16905090565b60008054906101000a900473ffffffffffffffffffffffffffffffffffffffff1681565b606060018054610a5390611971565b80601f0160208091040260200160405190810160405280929190818152602001828054610a7f90611971565b8015610acc5780601f10610aa157610100808354040283529160200191610acc565b820191906000526020600020905b815481529060010190602001808311610aaf57829003601f168201915b5050505050905090565b60606009805480602002602001604051908101604052809291908181526020016000905b82821015610b8c57838290600052602060002090600202016040518060400160405290816000820160009054906101000a900473ffffffffffffffffffffffffffffffffffffffff1673ffffffffffffffffffffffffffffffffffffffff1673ffffffffffffffffffffffffffffffffffffffff16815260200160018201548152505081526020019060010190610afa565b50505050905090565b600660009054906101000a900460ff1681565b600660009054906101000a900460ff1615610bf8576040517f08c379a0000000000000000000000000000000000000000000000000000000008152600401610bef906117f9565b60405180910390fd5b600254341015610c3d576040517f08c379a0000000000000000000000000000000000000000000000000000000008152600401610c34906119ee565b60405180910390fd5b343373ffffffffffffffffffffffffffffffffffffffff16311015610c97576040517f08c379a0000000000000000000000000000000000000000000000000000000008152600401610c8e90611a5a565b60405180910390fd5b60076000815480929190610caa906118fa565b919050555060405180604001604052803373ffffffffffffffffffffffffffffffffffffffff1681526020013481525060086000600754815260200190815260200160002060008201518160000160006101000a81548173ffffffffffffffffffffffffffffffffffffffff021916908373ffffffffffffffffffffffffffffffffffffffff16021790555060208201518160010155905050600960405180604001604052803373ffffffffffffffffffffffffffffffffffffffff16815260200134815250908060018154018082558091505060019003906000526020600020906002020160009091909190915060008201518160000160006101000a81548173ffffffffffffffffffffffffffffffffffffffff021916908373ffffffffffffffffffffffffffffffffffffffff1602179055506020820151816001015550507f1bb460ccaaf70fbacfec17a376f8acbd278c1405590ffcc8ebe4b88daf4f64ad3334604051610e1d929190611447565b60405180910390a16064610e2f6110ee565b10610e50576001600660006101000a81548160ff0219169083151502179055505b565b6000600454905090565b606060038054610e6b90611971565b80601f0160208091040260200160405190810160405280929190818152602001828054610e9790611971565b8015610ee45780601f10610eb957610100808354040283529160200191610ee4565b820191906000526020600020905b815481529060010190602001808311610ec757829003601f168201915b5050505050905090565b600660019054906101000a900473ffffffffffffffffffffffffffffffffffffffff1673ffffffffffffffffffffffffffffffffffffffff163373ffffffffffffffffffffffffffffffffffffffff1614610f7e576040517f08c379a0000000000000000000000000000000000000000000000000000000008152600401610f759061178d565b60405180910390fd5b600660009054906101000a900460ff16610fcd576040517f08c379a0000000000000000000000000000000000000000000000000000000008152600401610fc490611ac6565b60405180910390fd5b6064610fd76110ee565b1015611018576040517f08c379a000000000000000000000000000000000000000000000000000000000815260040161100f90611ac6565b60405180910390fd5b600047905060008060009054906101000a900473ffffffffffffffffffffffffffffffffffffffff1673ffffffffffffffffffffffffffffffffffffffff16826040516110649061184a565b60006040518083038185875af1925050503d80600081146110a1576040519150601f19603f3d011682016040523d82523d6000602084013e6110a6565b606091505b50509050806110ea576040517f08c379a00000000000000000000000000000000000000000000000000000000081526004016110e1906118ab565b60405180910390fd5b5050565b60006004546064476111009190611ae6565b61110a9190611b57565b905090565b60004260055461111f9190611b88565b905090565b606060646111306110ee565b10611172576040518060400160405280601081526020017f46756e64696e6720436f6d706c6574650000000000000000000000000000000081525090506111f7565b600061117c61110f565b116111be576040518060400160405280600e81526020017f46756e64696e67204661696c656400000000000000000000000000000000000081525090506111f7565b6040518060400160405280601381526020017f46756e64696e6720496e2050726f67726573730000000000000000000000000081525090505b90565b6000600254905090565b600060606000606060008060008054906101000a900473ffffffffffffffffffffffffffffffffffffffff166001600254600360045460055484805461124990611971565b80601f016020809104026020016040519081016040528092919081815260200182805461127590611971565b80156112c25780601f10611297576101008083540402835291602001916112c2565b820191906000526020600020905b8154815290600101906020018083116112a557829003601f168201915b505050505094508280546112d590611971565b80601f016020809104026020016040519081016040528092919081815260200182805461130190611971565b801561134e5780601f106113235761010080835404028352916020019161134e565b820191906000526020600020905b81548152906001019060200180831161133157829003601f168201915b50505050509250955095509550955095509550909192939495565b600660019054906101000a900473ffffffffffffffffffffffffffffffffffffffff1681565b600080fd5b6000819050919050565b6113a781611394565b81146113b257600080fd5b50565b6000813590506113c48161139e565b92915050565b6000602082840312156113e0576113df61138f565b5b60006113ee848285016113b5565b91505092915050565b600073ffffffffffffffffffffffffffffffffffffffff82169050919050565b6000611422826113f7565b9050919050565b61143281611417565b82525050565b61144181611394565b82525050565b600060408201905061145c6000830185611429565b6114696020830184611438565b9392505050565b60006020820190506114856000830184611438565b92915050565b600081519050919050565b600082825260208201905092915050565b60005b838110156114c55780820151818401526020810190506114aa565b60008484015250505050565b6000601f19601f8301169050919050565b60006114ed8261148b565b6114f78185611496565b93506115078185602086016114a7565b611510816114d1565b840191505092915050565b6000602082019050818103600083015261153581846114e2565b905092915050565b60006020820190506115526000830184611429565b92915050565b600081519050919050565b600082825260208201905092915050565b6000819050602082019050919050565b61158d81611417565b82525050565b61159c81611394565b82525050565b6040820160008201516115b86000850182611584565b5060208201516115cb6020850182611593565b50505050565b60006115dd83836115a2565b60408301905092915050565b6000602082019050919050565b600061160182611558565b61160b8185611563565b935061161683611574565b8060005b8381101561164757815161162e88826115d1565b9750611639836115e9565b92505060018101905061161a565b5085935050505092915050565b6000602082019050818103600083015261166e81846115f6565b905092915050565b60008115159050919050565b61168b81611676565b82525050565b60006020820190506116a66000830184611682565b92915050565b600060c0820190506116c16000830189611429565b81810360208301526116d381886114e2565b90506116e26040830187611438565b81810360608301526116f481866114e2565b90506117036080830185611438565b61171060a0830184611438565b979650505050505050565b7f4f6e6c792074686520617262697465722063616e2063616c6c2074686973206660008201527f756e6374696f6e00000000000000000000000000000000000000000000000000602082015250565b6000611777602783611496565b91506117828261171b565b604082019050919050565b600060208201905081810360008301526117a68161176a565b9050919050565b7f46756e64696e6720697320636f6d706c65746500000000000000000000000000600082015250565b60006117e3601383611496565b91506117ee826117ad565b602082019050919050565b60006020820190508181036000830152611812816117d6565b9050919050565b600081905092915050565b50565b6000611834600083611819565b915061183f82611824565b600082019050919050565b600061185582611827565b9150819050919050565b7f4661696c656420746f2073656e64204574686572000000000000000000000000600082015250565b6000611895601483611496565b91506118a08261185f565b602082019050919050565b600060208201905081810360008301526118c481611888565b9050919050565b7f4e487b7100000000000000000000000000000000000000000000000000000000600052601160045260246000fd5b600061190582611394565b91507fffffffffffffffffffffffffffffffffffffffffffffffffffffffffffffffff8203611937576119366118cb565b5b600182019050919050565b7f4e487b7100000000000000000000000000000000000000000000000000000000600052602260045260246000fd5b6000600282049050600182168061198957607f821691505b60208210810361199c5761199b611942565b5b50919050565b7f4d696e696d756d20627579206e6f74206d657400000000000000000000000000600082015250565b60006119d8601383611496565b91506119e3826119a2565b602082019050919050565b60006020820190508181036000830152611a07816119cb565b9050919050565b7f496e73756666696369656e742062616c616e6365000000000000000000000000600082015250565b6000611a44601483611496565b9150611a4f82611a0e565b602082019050919050565b60006020820190508181036000830152611a7381611a37565b9050919050565b7f46756e64696e67206973206e6f7420636f6d706c657465000000000000000000600082015250565b6000611ab0601783611496565b9150611abb82611a7a565b602082019050919050565b60006020820190508181036000830152611adf81611aa3565b9050919050565b6000611af182611394565b9150611afc83611394565b9250828202611b0a81611394565b91508282048414831517611b2157611b206118cb565b5b5092915050565b7f4e487b7100000000000000000000000000000000000000000000000000000000600052601260045260246000fd5b6000611b6282611394565b9150611b6d83611394565b925082611b7d57611b7c611b28565b5b828204905092915050565b6000611b9382611394565b9150611b9e83611394565b9250828203905081811115611bb657611bb56118cb565b5b9291505056fea2646970667358221220330bf08b8e2a9f28657e82717eb66848118f6335e630f26bd8468ae27a2d26c064736f6c63430008110033",
  "linkReferences": {},
  "deployedLinkReferences": {}
}